:10000000A4C00000BDC00000BBC00000B9C000001B
:10001000B7C00000B5C00000B3C00000B1C0000010
:10002000AFC00000ADC00000ABC00000B5C4000010
:10003000A7C00000A5C00000A3C00000A1C0000030
:100040009FC000009DC000009BC0000099C0000040
:1000500097C0000095C0000093C0000041C200009E
:100060008FC000008DC000008BC0000089C0000060
:1000700087C0000012034B006500790062006F002A
:10008000610072006400000010034100720064000F
:10009000750069006E006F00000004030904090286
:1000A0004300020100C032080B00020300000009F7
:1000B0000400000103010100092111010001224097
:1000C0000007058103080001090401000103000085
:1000D0000009211101000122170007058203080011
:1000E0000412011001EF020108EB0342200100019C
:1000F000020001050C0901A101150026FF031900EA
:100100002AFF03751095018100C005010906A101B0
:10011000050719E029E715002501750195088102F9
:1001200095017508810305081901290595057501D3
:100130009102950175039103150026E70005071943
:100140000029E7950675088100C011241FBECFEF76
:10015000D2E0DEBFCDBF11E0A0E0B1E0E4EEF0E11F
:1001600002C005900D92A035B107D9F722E0A0E5B5
:10017000B1E001C01D92AA31B207E1F7F1D0B0C7DA
:100180003FCF8EB321E0843059F008958FEF830F75
:10019000823030F430935A011092590120935B0160
:1001A0009FB7F89480915C019FBF882371F34FB78C
:1001B000F894E0915D01F0E0E15AFE4F30818091CA
:1001C0005D0190E001968F73992780935D01809186
:1001D0005C01815080935C014FBF80915B0188235B
:1001E000A9F2813019F010925B01DACFE091590148
:1001F00081E08E0F80935901F0E0EF5AFE4F30837B
:10020000883070F280915A01813021F58091C401CB
:1002100090E00196877099273091C501381799F0C1
:10022000A091C401B0E033E0AA0FBB1F3A95E1F7FB
:10023000AA53BE4F98E0E1E5F1E001900D929A9546
:10024000E1F78093C40110925B0110925A01109261
:100250005901A6CF8230B9F7E091510187E18E0FA5
:10026000823060F1E23E51F181E0ED3C29F09BE407
:100270009E0F933008F080E080FFE5CFE55B50E013
:1002800040E0E63328F4F0E0E65EFE4F408150E0C7
:100290008091A20190E001968F7099273091A3017F
:1002A000381789F2E091A201F0E0EE0FFF1FEC5544
:1002B000FE4F518340838093A201C5CF81E0DCCF04
:1002C000AF92BF92DF92EF92FF920F931F93CF9363
:1002D000DF9384B7877F84BF0FB6F894A895809189
:1002E0006000886180936000109260000FBE8CEC0B
:1002F000A82EB12C87E690E0F501918380839AECDB
:10030000E92EF12C26E0D22EF701D08208EC10E085
:10031000F8011082C9ECD0E088E18883539A5A9A98
:1003200030D384E085BD5F9A579A1882F801108215
:10033000F70110828FEC90E0F50191838083F70143
:10034000D08282E0F801808388E98883DF91CF91B1
:100350001F910F91FF90EF90DF90BF90AF900895A5
:10036000AFDF78940EDF8DE091E0F3D580E091E08F
:10037000F0D5A7D4F7CF0F931F93CF93DF93CDB7CB
:10038000DEB728970FB6F894DEBF0FBECDBF41E0B1
:100390008D309407E1F59091C5018091C4019813C7
:1003A00004C0F801118210826DC0E091C501F0E037
:1003B00093E0EE0FFF1F9A95E1F7EA53FE4F88E0B6
:1003C000DE01119601900D928A95E1F78091C501A9
:1003D00090E00196877099278093C50188E0FE011F
:1003E0003196D90101900D928A95E1F788E090E06D
:1003F000F8019183808381E028960FB6F894DEBFE0
:100400000FBECDBFDF91CF911F910F910895805006
:10041000914039F68091A101811124C09091A301EE
:100420008091A201981731F1E091A301F0E0EE0F65
:10043000FF1FEC55FE4F408151815093A001409326
:100440009F018091A30190E001968F70992780937E
:10045000A301F9015183408381E08093A10182E0EF
:1004600090E0C6CF813031F4F901118210821092F0
:10047000A101F5CFF9011182108282E090E0F8012C
:100480009183808380E0B8CF08958DE091E041D5DD
:1004900080E091E03ED5E2EEF0E0808184608083F0
:1004A00008958DE091E01ED480E091E01BC480911E
:1004B000180190911901009729F001979093190163
:1004C0008093180180910B0190910C01009729F005
:1004D000019790930C0180930B010895089508955E
:1004E0001F920F920FB60F9211248F939F93EF9349
:1004F000FF938091CE009EB39430B9F490915C014B
:10050000903498F4E0915E01F0E0E15AFE4F808370
:1005100080915E0190E001968F73992780935E0130
:1005200080915C018F5F80935C01FF91EF919F91BF
:100530008F910F900FBE0F901F901895292F332782
:100540002330310551F158F421303105C9F0223002
:100550003105F1F090E080E030E020E015C021327C
:10056000310571F122323105A9F787E190E023EFDF
:1005700030E0611109C080E490E02AE031E004C07D
:1005800082E190E021EE30E0FA013183208308958A
:1005900083E490E02EE930E0F7CF99278130910590
:1005A00061F028F00297B1F6E4E7F0E002C0EAE972
:1005B000F0E0849190E09F01E7CFE8E8F0E0F9CF28
:1005C00089E090E021ED30E06111DECF28EB30E0F2
:1005D000DBCFAC0128E030E080E02417350718F0CD
:1005E0008295807F08958F5F220F331FF6CF80930F
:1005F000E900EBEEF0E0808181608083EDEEF0E0D9
:1006000010826093EC0040838091EE00881F882761
:10061000881F08951092F40080E08093E900109202
:10062000F0001092E8001092ED009091EB009E7F98
:100630009093EB008F5F853081F7089580911202CF
:1006400087FF11C08091E80082FF06C08091E8001A
:100650008B778093E80003C08EB38111F3CF0895A8
:100660008EB38823E1F38091E80080FFF9CF809179
:10067000E8008E77EECF85E69091EC0090FF06C003
:100680009091E80090FF06C080E008959091E80006
:1006900092FDFACF9EB39923A1F09EB3953099F0C5
:1006A0009091EB0095FD11C09091E10092FFE4CF95
:1006B0009091E1009B7F9093E1008150E9F684E006
:1006C000089582E0089583E0089581E00895CF922F
:1006D000DF92EF92FF920F931F93CF937C018B01D8
:1006E0006A01C9DFC82F8823C1F08C2FCF911F91D9
:1006F0000F91FF90EF90DF90CF900895F60109954C
:100700008130D1F4C5E0F1CFF70180818093F10011
:1007100001501109C70101967C010115110529F34A
:100720008091E80085FDF0CF8091E8008E7780937E
:10073000E800C114D10411F79EDF882371F3C82F9C
:10074000D4CF209118023091190226173707A0F054
:100750006115710529F42091E8002E772093E800B7
:1007600030E06115710551F4311108C08091E80045
:1007700082FF30C080E00895B901F2CF2091E800F7
:1007800023FD30C02091E80022FDF0CF2EB32223BC
:1007900059F12EB3253021F12091E80020FFE1CF5F
:1007A0002091F200FC01CF016115710511F0283094
:1007B00050F031E0283009F030E02091E8002E7749
:1007C0002093E800CECF81918093F10061507109B0
:1007D0002F5FE9CF8EB3882339F08EB3853031F6A1
:1007E00083E0089581E0089582E008952091180241
:1007F0003091190226173707A0F06115710529F409
:100800002091E8002E772093E80030E06115710513
:1008100051F4311108C08091E80082FF31C080E0BE
:100820000895B901F2CF2091E80023FD31C0209155
:10083000E80022FDF0CF2EB3222361F12EB3253044
:1008400029F12091E80020FFE1CF2091F200FC0186
:10085000CF016115710511F0283050F031E02830DA
:1008600009F030E02091E8002E772093E800CECF09
:1008700084918093F100615071092F5F3196E8CF28
:100880008EB3882339F08EB3853029F683E008953E
:1008900081E0089582E008956115710529F42091A1
:1008A000E8002B772093E8006115710531F4809101
:1008B000E80080FF20C080E008952091E80023FD3B
:1008C00022C02EB3222309F12EB32530D1F020917E
:1008D000E80022FFE9CF2091F200222301F39C01DE
:1008E0002F5F3F4F4091F100FC014083615071093F
:1008F000C90189F7D4CF8EB3882339F08EB3853000
:10090000B1F683E0089581E0089582E008953ED035
:1009100040D01EBA1092100284E089BD89B5826071
:1009200089BD09B400FEFDCF8091D800982F9F7734
:100930009093D80080688093D800809163008E7F68
:10094000809363008091D8008F7D8093D800809140
:10095000E0008E7F8093E0008091E1008E7F8093A5
:10096000E1008091E20081608093E2008091E100EB
:10097000877F8093E1008091E20088608093E200AD
:100980000895C5DF81E08093110208951092E2007E
:1009900008951092E10008951F920F920FB60F92E2
:1009A00011242F933F934F935F936F937F938F9374
:1009B0009F93AF93BF93EF93FF938091E10080FFEC
:1009C0001BC08091E20080FF17C08091E1008E7F04
:1009D0008093E1008091E2008E7F8093E20080911D
:1009E000E20080618093E2008091D8008062809371
:1009F000D80019BC1EBA73DD8091E10084FF27C0C6
:100A00008091E20084FF23C084E089BD89B58260C3
:100A100089BD09B400FEFDCF8091D8008F7D809301
:100A2000D8008091E1008F7E8093E1008091E20008
:100A30008F7E8093E2008091E20081608093E200EB
:100A400080911002811148C081E08EBB47DD80910A
:100A5000E10083FF22C08091E20083FF1EC08091ED
:100A6000E100877F8093E10082E08EBB109210024C
:100A70008091E1008E7F8093E1008091E2008E7F83
:100A80008093E2008091E20080618093E200C2DD09
:100A900042E060E080E0ABDD13D18091E10082FFB5
:100AA0000AC08091E20082FF06C08091E1008B7F46
:100AB0008093E100FCDCFF91EF91BF91AF919F919A
:100AC0008F917F916F915F914F913F912F910F90F7
:100AD0000FBE0F901F90189584E0B7CF1F93CF9350
:100AE000DF9300D0CDB7DEB7E2E1F2E08091F10014
:100AF000819382E0EA31F807C9F780911202909160
:100B000013029A3008F0DAC0E92FF0E0E757FA4F05
:100B1000C4C29305B2055E06B2055E06EB051A0671
:100B20005E0639064506803809F470C0823809F03F
:100B3000C5C08091160287708093E9008091EB0018
:100B400085FB882780F91092E9009091E800977F53
:100B50009093E8008093F1001092F1008091E800FA
:100B60008E7722C0282F2D7F09F0A8C0823009F08F
:100B70004DC080911402811112C0809116028770BD
:100B800009F444C08093E9002091EB0020FF3EC0AF
:100B9000933071F48091EB0080628093EB001092AF
:100BA000E9008091E800877F8093E80047DD2EC050
:100BB0009091EB0090619093EB0021E030E001C058
:100BC000220F8A95EAF72093EA001092EA008091BA
:100BD000EB008860E2CF811171C010911402809106
:100BE000E800877F8093E80029DD8091E80080FF9E
:100BF0000AC0812F8F7792E009F093E09EBB806856
:100C00008093E30003C08EB38111EFCF8091E800A1
:100C100083FF0AC08091EB0080628093EB0080919B
:100C2000E800877F8093E8000F900F90DF91CF91CD
:100C30001F9108958058823008F040C0AE014F5F88
:100C40005F4F60911602809114029091150276DC3C
:100C5000BC01892BD9F29091E800977F9093E8002E
:100C600089819A81C3DD8091E8008B778093E800C9
:100C7000CDCF803819F58091E800877F8093E80018
:100C8000809110028093F10069CF811117C090917B
:100C90001402923008F0BACF8091E800877F8093E9
:100CA000E80090931002CADC80911002811104C008
:100CB00083E08EBBEADBAACF84E0FBCFF2DBA6CFDA
:100CC0000895CF938EB3882359F0C091E900C7707F
:100CD0001092E9008091E80083FD00DFC093E900F5
:100CE000CF9108958F929F92AF92BF92CF92DF9251
:100CF000EF92FF920F931F93CF93DF9300D01F9239
:100D0000CDB7DEB77C01CDB6DEB68091E80083FFBB
:100D100015C0F701208180911602909117022817C3
:100D2000190661F480911302833009F4A2C0D8F44B
:100D3000813009F452C0823009F4DAC00FB6F89459
:100D4000DEBE0FBECDBE0F900F900F90DF91CF9102
:100D50001F910F91FF90EF90DF90CF90BF90AF90D9
:100D60009F908F9008958A3009F4AAC08B3009F4BF
:100D700093C0893019F7809112028132F9F680917F
:100D8000E800877F8093E800009118021091190213
:100D9000A0901402B09015028DB79EB7801B910BE6
:100DA0000FB6F8949EBF0FBE8DBFEDB7FEB731965C
:100DB0004F01B801CF0170DD4FEF4B0D94016A2D4B
:100DC000C70162DB8091E8008E778093E8000FB660
:100DD000F894DEBE0FBECDBEB1CF80911202813A33
:100DE00009F0ACCF8DB69EB68091E800877F8093E6
:100DF000E8001A82198280911402109115028B83E7
:100E00008781482F50E08DB79EB7841B950B0FB696
:100E1000F8949EBF0FBE8DBFEDB7FEB731965F0150
:100E200070E060E0CF0155D14FEF410F8E010F5FB1
:100E30001F4F9501BE016D5F7F4FC7019CDAF7011F
:100E400085819681009721F0478150E0B50138D126
:100E50001092E90069817A81C50173DC8091E80014
:100E60008B778093E8000FB6F8949EBE0FBE8DBEC0
:100E700065CF80911202813A09F060CF8091E8003D
:100E8000877F8093E80080858093F1008091E8005F
:100E90008E778093E80012C080911202813209F0AF
:100EA0004DCF8091E800877F8093E80090911402F5
:100EB00081E0911101C080E0F7018087BFDB3ECF68
:100EC00080911202813209F039CF8091E800877F4A
:100ED0008093E800809114029091150236E0969577
:100EE00087953A95E1F78C7F937092878187E6CF5B
:100EF00080911202813A09F021CF8091E800877F2A
:100F00008093E8008185928596958795969587953B
:100F1000BBCFCF93DF93FC01DC011A9683E0ED0198
:100F200019928A95E9F781E0808784EF91E09287B2
:100F30008187828193812481C0E02111C4E0D18125
:100F400048DB8C2B482F426061EC8D2FDF91CF91D5
:100F50004ECB5F926F927F928F929F92AF92BF9291
:100F6000CF92DF92EF92FF920F931F93CF93DF9375
:100F700000D01F92CDB7DEB77C01ADB6BEB68EB342
:100F8000843009F072C0F70181818093E90080917B
:100F9000E80085FF6AC08DB69EB6478150E08DB7E8
:100FA0009EB7841B950B0FB6F8949EBF0FBE8DBFE6
:100FB000EDB7FEB731966F011B821A82198270E07D
:100FC00060E0CF0186D08E010F5F1F4F960140E099
:100FD000BE016D5F7F4FC701CED9582EF7018185C5
:100FE0009285892B29F011E083859485892B09F05E
:100FF00010E0F7016580768000E06114710479F0FB
:1010000049815A81B301C6014ED001E0892B09F410
:1010100000E0F701478150E0B601C30151D089815A
:101020009A81892BE9F0511004C0011102C010FF10
:1010300017C0F7018185928594878387818180938A
:10104000E9008B8181118093F10069817A8150E000
:1010500040E0C6013CDB8091E8008E778093E80099
:101060000FB6F8949EBE0FBE8DBE0FB6F894BEBEEE
:101070000FBEADBE0F900F900F90DF91CF911F91DB
:101080000F91FF90EF90DF90CF90BF90AF909F9027
:101090008F907F906F905F900895EE0FFF1F0590E7
:1010A000F491E02D0994FB01DC0104C08D910190C5
:1010B000801921F441505040C8F7881B990B0895BE
:1010C000FB01DC0102C001900D9241505040D8F765
:1010D0000895DC0101C06D9341505040E0F7089540
:0410E000F894FFCFB2
:1010E40001020800000E02020000000000000108D6
:1010F40000000602080000000000B5B6B7000000BA
:1011040000000000000000000000000000000000DB
:101114000000CD00000000000000000000000000FE
:1011240000000000000000E2000000000000E9EA06
:00000001FF
