:10000000A4C00000BDC00000BBC00000B9C000001B
:10001000B7C00000B5C00000B3C00000B1C0000010
:10002000AFC00000ADC00000ABC0000044C4000081
:10003000A7C00000A5C00000A3C00000A1C0000030
:100040009FC000009DC000009BC0000099C0000040
:1000500097C0000095C0000093C00000C5C100001B
:100060008FC000008DC000008BC0000089C0000060
:1000700087C0000012034B006500790062006F002A
:10008000610072006400000010034100720064000F
:10009000750069006E006F00000004030904090286
:1000A0003B00020100C0320904000001030101000D
:1000B0000921110100012242000705810308000AFD
:1000C00009040100010300000009211101000122BF
:1000D0001D000705820308000A120110010000003C
:1000E00008EB034320010001020001050C0901A1F6
:1000F0000109E909EA09E209CD1500250175019513
:1001000004810295048103C005010906A10185014E
:1001100075019508050719E029E7150025018102F9
:1001200095017508810395057501050819012905D3
:10013000910295017503910395067508150026E750
:10014000000507190029E78100C011241FBECFEF69
:10015000D2E0DEBFCDBF11E0A0E0B1E0E2E0F0E12F
:1001600002C005900D92AE30B107D9F721E0AEE0A4
:10017000B1E001C01D92AF3AB207E1F752D03FC7DC
:100180003FCFAF92BF92DF92EF92FF920F931F93F8
:10019000CF93DF9384B7877F84BF0FB6F894A89579
:1001A00080916000886180936000109260000FBEB3
:1001B0008CECA82EB12C87E690E0F501918380832A
:1001C0009AECE92EF12C26E0D22EF701D08208EC31
:1001D00010E0F8011082C9ECD0E088E18883539ADE
:1001E0005A9A5ED384E085BD5F9A579A1882F801C7
:1001F0001082F70110828FEC90E0F50191838083EB
:10020000F701D08282E0F801808388E98883DF915A
:10021000CF911F910F91FF90EF90DF90BF90AF9023
:100220000895AFDF2FB7F89480E291E09093A10199
:100230008093A0019093A3018093A2012FBF789493
:1002400080E091E015D6CCD4FBCF0895089580E0EE
:1002500091E0EED542E060EC82E058D1E2EEF0E0D1
:10026000808184608083089580E091E0CAC4809199
:100270000B0190910C01009729F0019790930C01CC
:1002800080930B0108950F931F93CF93DF93E801A1
:100290009FB7F8948091A4019FBF883038F1AFE0F8
:1002A000B1E060E271E0E091A201F091A3019191CF
:1002B00081E0E03AF80709F463C0F093A301E0930A
:1002C000A2014FB7F8948091A40181508093A401BA
:1002D0004FBF9D9381E0A731B80729F780910E01A8
:1002E0009091C80095FFFCCF8093CE0080911101C2
:1002F00097E1980FA901485F5F4F923028F0823E46
:1003000019F08D3C09F049C092E09093E90090917A
:10031000E80090FF10C0893EC1F18A3EC1F1823EE3
:10032000C1F18D3CC1F180E08093F1008091E80043
:100330008E778093E80081E080931701F901119294
:10034000E417F507E1F710920F01109210011092D7
:1003500011011092120110921301109214011092C7
:1003600015011092160181E08093E90088E090E089
:100370009983888380E0DF91CF911F910F91089539
:100380007093A3016093A2019CCF81E0CDCF82E066
:10039000CBCF84E0C9CF88E0C7CF909117019923D4
:1003A000A9F0811113C082E08093E9008091E800F8
:1003B00080FF07C01092F1008091E8008E77809353
:1003C000E8001092170181E08093E900AFE0B1E00E
:1003D000F9018D9181934E175F07D9F7C7CFF901C6
:1003E000808180930E0108951F920F920FB60F9295
:1003F00011242F938F939F93EF93FF938091CE00BF
:100400009EB39430D9F4E091A001F091A1018083D2
:10041000E091A001F091A101CF01019621E0803A85
:100420009207B1F09093A1018093A0019FB7F89437
:100430008091A4018F5F8093A4019FBFFF91EF91F2
:100440009F918F912F910F900FBE0F901F90189535
:1004500080E291E092838183E9CF292F33272330F3
:10046000310551F158F421303105C9F02230310500
:10047000F1F090E080E030E020E015C0213231055D
:1004800071F122323105A9F78DE190E02BEE30E0D9
:10049000611109C082E490E028E031E004C082E10B
:1004A00090E029ED30E0FA013183208308958BE359
:1004B00090E02EE930E0F7CF99278130910561F087
:1004C00028F00297B1F6E4E7F0E002C0EAE9F0E0D4
:1004D000849190E09F01E7CFE8E8F0E0F9CF89E070
:1004E00090E029EC30E06111DECF20EB30E0DBCF93
:1004F000AC0128E030E080E02417350718F0829541
:10050000807F08958F5F220F331FF6CF8093E9001D
:10051000EBEEF0E0808181608083EDEEF0E0108210
:100520006093EC0040838091EE00881F8827881F2D
:1005300008951092F40080E08093E9001092F0009A
:100540001092E8001092ED009091EB009E7F909346
:10055000EB008F5F853081F708958091A70187FFB9
:1005600011C08091E80082FF06C08091E8008B777F
:100570008093E80003C08EB38111F3CF08958EB34A
:100580008823E1F38091E80080FFF9CF8091E800B3
:100590008E77EECF85E69091EC0090FF06C09091AB
:1005A000E80090FF06C080E008959091E80092FD79
:1005B000FACF9EB39923A1F09EB3953099F0909114
:1005C000EB0095FD11C09091E10092FFE4CF909176
:1005D000E1009B7F9093E1008150E9F684E008956B
:1005E00082E0089583E0089581E00895CF92DF923C
:1005F000EF92FF920F931F93CF937C018B016A01BF
:10060000C9DFC82F8823C1F08C2FCF911F910F9184
:10061000FF90EF90DF90CF900895F601099581301B
:10062000D1F4C5E0F1CFF70180818093F100015052
:100630001109C70101967C010115110529F380916B
:10064000E80085FDF0CF8091E8008E778093E80088
:10065000C114D10411F79EDF882371F3C82FD4CFC2
:100660002091AD013091AE0126173707A0F061153A
:10067000710529F42091E8002E772093E80030E0FE
:100680006115710551F4311108C08091E80082FFB5
:1006900030C080E00895B901F2CF2091E80023FD39
:1006A00030C02091E80022FDF0CF2EB3222359F173
:1006B0002EB3253021F12091E80020FFE1CF2091D9
:1006C000F200FC01CF016115710511F0283050F0E6
:1006D00031E0283009F030E02091E8002E772093B7
:1006E000E800CECF81918093F100615071092F5FB6
:1006F000E9CF8EB3882339F08EB3853031F683E0AD
:10070000089581E0089582E008952091AD0130912F
:10071000AE0126173707A0F06115710529F4209165
:10072000E8002E772093E80030E06115710551F460
:10073000311108C08091E80082FF31C080E0089547
:10074000B901F2CF2091E80023FD31C02091E800EB
:1007500022FDF0CF2EB3222361F12EB3253029F1F3
:100760002091E80020FFE1CF2091F200FC01CF01B1
:100770006115710511F0283050F031E0283009F092
:1007800030E02091E8002E772093E800CECF8491CE
:100790008093F100615071092F5F3196E8CF8EB3DD
:1007A000882339F08EB3853029F683E0089581E0FF
:1007B000089582E008956115710529F42091E800FB
:1007C0002B772093E8006115710531F48091E800E2
:1007D00080FF20C080E008952091E80023FD22C022
:1007E0002EB3222309F12EB32530D1F02091E80059
:1007F00022FFE9CF2091F200222301F39C012F5F19
:100800003F4F4091F100FC01408361507109C901E3
:1008100089F7D4CF8EB3882339F08EB38530B1F603
:1008200083E0089581E0089582E008953ED040D0AD
:100830001EBA1092A50184E089BD89B5826089BD88
:1008400009B400FEFDCF8091D800982F9F77909338
:10085000D80080688093D800809163008E7F809359
:1008600063008091D8008F7D8093D8008091E00054
:100870008E7F8093E0008091E1008E7F8093E10085
:100880008091E20081608093E2008091E100877FA7
:100890008093E1008091E20088608093E2000895F7
:1008A000C5DF81E08093A60108951092E2000895CB
:1008B0001092E10008951F920F920FB60F9211242B
:1008C0002F933F934F935F936F937F938F939F9358
:1008D000AF93BF93EF93FF938091E10080FF1BC024
:1008E0008091E20080FF17C08091E1008E7F8093AD
:1008F000E1008091E2008E7F8093E2008091E2002F
:1009000080618093E2008091D80080628093D8005B
:1009100019BC1EBA9BDC8091E10084FF27C0809146
:10092000E20084FF23C084E089BD89B5826089BD6F
:1009300009B400FEFDCF8091D8008F7D8093D80050
:100940008091E1008F7E8093E1008091E2008F7EB4
:100950008093E2008091E20081608093E2008091C8
:10096000A501811148C081E08EBB6FDC8091E10060
:1009700083FF22C08091E20083FF1EC08091E100CE
:10098000877F8093E10082E08EBB1092A501809169
:10099000E1008E7F8093E1008091E2008E7F809362
:1009A000E2008091E20080618093E200C2DD42E0DB
:1009B00060E080E0ABDD13D18091E10082FF0AC0EE
:1009C0008091E20082FF06C08091E1008B7F8093DE
:1009D000E1004DDCFF91EF91BF91AF919F918F911D
:1009E0007F916F915F914F913F912F910F900FBE2B
:1009F0000F901F90189584E0B7CF1F93CF93DF938C
:100A000000D0CDB7DEB7E7EAF1E08091F100819345
:100A100081E0EF3AF807C9F78091A7019091A8010A
:100A20009A3008F0DAC0E92FF0E0E85EFA4FC4C26D
:100A300022054105ED054105ED057A05A905ED0500
:100A4000C805D405803809F470C0823809F0C5C0E3
:100A50008091AB0187708093E9008091EB0085FB6A
:100A6000882780F91092E9009091E800977F909391
:100A7000E8008093F1001092F1008091E8008E77F9
:100A800022C0282F2D7F09F0A8C0823009F04DC068
:100A90008091A901811112C08091AB01877009F486
:100AA00044C08093E9002091EB0020FF3EC09330CA
:100AB00071F48091EB0080628093EB001092E9006A
:100AC0008091E800877F8093E80047DD2EC09091F9
:100AD000EB0090619093EB0021E030E001C0220F29
:100AE0008A95EAF72093EA001092EA008091EB00E1
:100AF0008860E2CF811171C01091A9018091E80056
:100B0000877F8093E80029DD8091E80080FF0AC09C
:100B1000812F8F7792E009F093E09EBB80688093ED
:100B2000E30003C08EB38111EFCF8091E80083FF13
:100B30000AC08091EB0080628093EB008091E80016
:100B4000877F8093E8000F900F90DF91CF911F91E6
:100B500008958058823008F040C0AE014F5F5F4F6B
:100B60006091AB018091A9019091AA0176DCBC0152
:100B7000892BD9F29091E800977F9093E8008981C2
:100B80009A81C3DD8091E8008B778093E800CDCF18
:100B9000803819F58091E800877F8093E800809184
:100BA000A5018093F10069CF811117C09091A9012F
:100BB000923008F0BACF8091E800877F8093E800F8
:100BC0009093A501CADC8091A501811104C083E046
:100BD0008EBB3DDBAACF84E0FBCF46DBA6CF0895DA
:100BE000CF938EB3882359F0C091E900C77010925B
:100BF000E9008091E80083FD00DFC093E900CF9118
:100C000008958F929F92AF92BF92CF92DF92EF9210
:100C1000FF920F931F93CF93DF9300D01F92CDB716
:100C2000DEB77C01CDB6DEB68091E80083FF15C04B
:100C3000F70120818091AB019091AC012817190632
:100C400061F48091A801833009F4A2C0D8F4813006
:100C500009F452C0823009F4DAC00FB6F894DEBE4F
:100C60000FBECDBE0F900F900F90DF91CF911F91CF
:100C70000F91FF90EF90DF90CF90BF90AF909F903B
:100C80008F9008958A3009F4AAC08B3009F493C07C
:100C9000893019F78091A7018132F9F68091E80037
:100CA000877F8093E8000091AD011091AE01A09084
:100CB000A901B090AA018DB79EB7801B910B0FB60A
:100CC000F8949EBF0FBE8DBFEDB7FEB731964F01B2
:100CD000B801CF0170DD4FEF4B0D94016A2DC701B4
:100CE0007EDB8091E8008E778093E8000FB6F89461
:100CF000DEBE0FBECDBEB1CF8091A701813A09F013
:100D0000ACCF8DB69EB68091E800877F8093E800D7
:100D10001A8219828091A9011091AA018B8387817F
:100D2000482F50E08DB79EB7841B950B0FB6F894F3
:100D30009EBF0FBE8DBFEDB7FEB731965F0170E06D
:100D400060E0CF0155D14FEF410F8E010F5F1F4F74
:100D50009501BE016D5F7F4FC70195DAF70185816F
:100D60009681009721F0478150E0B50138D110926B
:100D7000E90069817A81C50173DC8091E8008B7795
:100D80008093E8000FB6F8949EBE0FBE8DBE65CF6F
:100D90008091A701813A09F060CF8091E800877FB8
:100DA0008093E80080858093F1008091E8008E7741
:100DB0008093E80012C08091A701813209F04DCFE5
:100DC0008091E800877F8093E8009091A90181E0FD
:100DD000911101C080E0F7018087BFDB3ECF809199
:100DE000A701813209F039CF8091E800877F809395
:100DF000E8008091A9019091AA0136E09695879527
:100E00003A95E1F78C7F937092878187E6CF809146
:100E1000A701813A09F021CF8091E800877F809374
:100E2000E800818592859695879596958795BBCFA5
:100E3000CF93DF93FC01DC011A9683E0ED01199258
:100E40008A95E9F781E0808784EF91E09287818736
:100E5000828193812481C0E02111C4E0D18148DBEB
:100E60008C2B482F426061EC8D2FDF91CF914ECBC0
:100E70005F926F927F928F929F92AF92BF92CF922A
:100E8000DF92EF92FF920F931F93CF93DF9300D0E7
:100E90001F92CDB7DEB77C01ADB6BEB68EB384303F
:100EA00009F072C0F70181818093E9008091E80028
:100EB00085FF6AC08DB69EB6478150E08DB79EB75C
:100EC000841B950B0FB6F8949EBF0FBE8DBFEDB778
:100ED000FEB731966F011B821A82198270E060E0C2
:100EE000CF0186D08E010F5F1F4F960140E0BE01FB
:100EF0006D5F7F4FC701C7D9582EF7018185928555
:100F0000892B29F011E083859485892B09F010E065
:100F1000F7016580768000E06114710479F0498101
:100F20005A81B301C6014ED001E0892B09F400E0DB
:100F3000F701478150E0B601C30151D089819A8100
:100F4000892BE9F0511004C0011102C010FF17C035
:100F5000F701818592859487838781818093E90059
:100F60008B8181118093F10069817A8150E040E0AA
:100F7000C6013CDB8091E8008E778093E8000FB6D5
:100F8000F8949EBE0FBE8DBE0FB6F894BEBE0FBEC7
:100F9000ADBE0F900F900F90DF91CF911F910F91E9
:100FA000FF90EF90DF90CF90BF90AF909F908F9089
:100FB0007F906F905F900895EE0FFF1F0590F49162
:100FC000E02D0994FB01DC0104C08D910190801992
:100FD00021F441505040C8F7881B990B0895FB013C
:100FE000DC0102C001900D9241505040D8F70895A5
:100FF000DC0101C06D9341505040E0F70895F89432
:02100000FFCF20
:0E1002000001080000180108000000000000B6
:00000001FF
