:10000000A4C00000BEC00000BCC00000BAC0000018
:10001000B8C00000B6C00000B4C00000B2C000000C
:10002000B0C00000AEC00000ACC0000053C500006E
:10003000A8C00000A6C00000A4C00000A2C000002C
:10004000A0C000009EC000009CC000009AC000003C
:1000500098C0000096C0000094C0000036C20000A6
:1000600090C000008EC000008CC000008AC000005C
:1000700088C0000012034B006500790062006F0029
:10008000610072006400000010034100720064000F
:10009000750069006E006F00000004030904090286
:1000A0004300020100C032080B00020300000009F7
:1000B0000400000103010100092111010001224097
:1000C0000007058103080001090401000103000085
:1000D0000009211101000122170007058203080011
:1000E0000412011001EF020108EB0342200100019C
:1000F000020001050C0901A101150026FF031900EA
:100100002AFF03751095018102C005010906A101AE
:1001100075019508050719E029E7150025018102F9
:1001200095017508810395057501050819012905D3
:10013000910295017503910395067508150026E750
:10014000000507190029E78100C011241FBECFEF69
:10015000D2E0DEBFCDBF11E0A0E0B1E0E0E2F2E12D
:1001600002C005900D92A035B107D9F722E0A0E5B5
:10017000B1E001C01D92AA34B207E1F7A5D00C94FA
:100180000E093ECF2091750130E0A9014F5F5F4F0E
:100190004F705527609176016417150659F0220FAC
:1001A000331FF901E958FE4F918380834093750115
:1001B00081E0089580E008952091760130917501E5
:1001C000231799F030E0F901EE0FFF1FE958FE4FB9
:1001D00040815181FC01518340832F5F3F4F2F703D
:1001E00033272093760181E0089580E00895E0911F
:1001F0003D02F0913E02819192E0EB33F90769F004
:10020000F0933E02E0933D022FB7F89490913F02A5
:10021000915090933F022FBF08952BEB31E0309324
:100220003E0220933D02F0CFAF92BF92DF92EF9259
:10023000FF920F931F93CF93DF9384B7877F84BF81
:100240000FB6F894A8958091600088618093600053
:10025000109260000FBE8CECA82EB12C87E690E0C7
:10026000F501918380839AECE92EF12C26E0D22EC1
:10027000F701D08208EC10E0F8011082C9ECD0E060
:1002800088E18883539A5A9A1AD484E085BD5F9A8C
:10029000579A1882F8011082F70110828FEC90E0D3
:1002A000F50191838083F701D08282E0F801808399
:1002B00088E98883DF91CF911F910F91FF90EF9094
:1002C000DF90BF90AF900895CF93DF9300D0CDB76C
:1002D000DEB7AADF2FB7F8948BEB91E090933C0246
:1002E00080933B0290933E0280933D022FBF78940F
:1002F00009EA11E098E0F92E9FB7F89480913F0247
:100300009FBF8830D0F4809150018F5F809350015F
:10031000893C48F48DE091E0BAD680E091E0B7D610
:100320006ED5EACF64DF9FB7F89480913F029FBFFC
:100330008111F8CF10925001EDCF1092500189EA4F
:10034000C82E81E0D82E53DFF60181936F01F1EBC7
:10035000CF16F1E0DF06B9F78091AB0197E1980F76
:10036000923068F1823E59F18D3C49F19BE4980F3F
:1003700081E0933008F080E080FFCCCF8091750160
:1003800090E001968F709927209176012817190621
:1003900019F4CE01019610DFE091AB01E55B90E02E
:1003A00080E0E63328F4F0E0E65EFE4F808190E0E6
:1003B000E9DEF8018F2D11928A95E9F7ABCF81E044
:1003C000DBCF089508958DE091E041D680E091E083
:1003D0003ED6E2EEF0E080818460808308958DE077
:1003E00091E01ED580E091E01BC5809118019091AD
:1003F0001901009729F00197909319018093180132
:1004000080910B0190910C01009729F00197909336
:100410000C0180930B010895EF92FF920F931F93AD
:10042000CF93DF9300D0CDB7DEB7F8011A821982DF
:1004300041E08D30940739F58091980190919701B2
:10044000891303C01182108214C090E0DC01AA0F4E
:10045000BB1FA756BE4F4D915C910196877099279F
:1004600080939801D9014D935C9388E090E091834B
:10047000808380E00F900F90DF91CF911F910F91BB
:10048000FF90EF90089580509140E1F67901F901D5
:100490001182108280917401811111C0CE010196E8
:1004A0008BDE882341F089819A81D7018D939C93BB
:1004B00081E08093740182E090E0F801D8CF813030
:1004C000D1F710927401F7CF08951F920F920FB6D3
:1004D0000F921124EF92FF920F931F932F933F934C
:1004E0004F935F936F937F938F939F93AF93BF933C
:1004F000EF93FF93CF93DF93CDB7DEB72897DEBF9F
:10050000CDBF3091CE008EB38430F1F420915101F3
:10051000203278F48091530190E0FC01EC5AFE4FB8
:10052000308301968F719927809353012F5F209319
:1005300051018E010F5F1F4F7E0189E0E80EF11C13
:10054000909151019930E8F428960FB6F894DEBFE7
:100550000FBECDBFDF91CF91FF91EF91BF91AF91D2
:100560009F918F917F916F915F914F913F912F91CB
:100570001F910F91FF90EF900F900FBE0F901F9063
:1005800018952091520130E0F901EC5AFE4F80811C
:100590002F5F3F4F2F713327813009F03FC0F901A2
:1005A000EC5AFE4F808189832F5F3F4F2F71332795
:1005B000F901EC5AFE4F80818A832F5F3F4F2F71E4
:1005C000FE01339630E0D901AC5ABE4F8C91819335
:1005D0002F5F3F4FA9014F715527242FEE16FF06BD
:1005E00089F740935201995090935101809197015E
:1005F00090E09C012F5F3F4F277033274091980177
:100600004217130609F49CCF880F991FFC01E75687
:10061000FE4F118300832093970192CF823031F5F2
:10062000A9014F5F5F4F4F715527BA016F5F7F4F31
:100630006F714C5A5E4FFA0140812C5A3E4FF901BE
:100640008081542F482FE6E0F0E0262F30E02F5F26
:100650003F4F2F713327622F3197B9F72093520103
:10066000995090935101CA018DDD6ACF20935201B8
:1006700091509093510164CF292F332723303105B6
:1006800051F158F421303105C9F022303105F1F033
:1006900090E080E030E020E015C02132310571F1BA
:1006A00022323105A9F787E190E023EF30E06111B4
:1006B00009C080E490E02AE031E004C082E190E0EB
:1006C00021EE30E0FA0131832083089583E490E045
:1006D0002EE930E0F7CF99278130910561F028F0BD
:1006E0000297B1F6E4E7F0E002C0EAE9F0E08491B5
:1006F00090E09F01E7CFE8E8F0E0F9CF89E090E0F3
:1007000021ED30E06111DECF28EB30E0DBCFAC0132
:1007100028E030E080E02417350718F08295807FCC
:1007200008958F5F220F331FF6CF8093E900EBEE21
:10073000F0E0808181608083EDEEF0E010826093D4
:10074000EC0040838091EE00881F8827881F089561
:100750001092F40080E08093E9001092F000109273
:10076000E8001092ED009091EB009E7F9093EB00DB
:100770008F5F853081F708958091420287FF11C015
:100780008091E80082FF06C08091E8008B7780931B
:10079000E80003C08EB38111F3CF08958EB3882390
:1007A000E1F38091E80080FFF9CF8091E8008E7737
:1007B000EECF85E69091EC0090FF06C09091E800A6
:1007C00090FF06C080E008959091E80092FDFACF76
:1007D0009EB39923A1F09EB3953099F09091EB00D0
:1007E00095FD11C09091E10092FFE4CF9091E1005E
:1007F0009B7F9093E1008150E9F684E0089582E0C8
:10080000089583E0089581E00895CF92DF92EF92FA
:10081000FF920F931F93CF937C018B016A01C9DF75
:10082000C82F8823C1F08C2FCF911F910F91FF907B
:10083000EF90DF90CF900895F60109958130D1F4C3
:10084000C5E0F1CFF70180818093F10001501109DB
:10085000C70101967C010115110529F38091E8007B
:1008600085FDF0CF8091E8008E778093E800C11479
:10087000D10411F79EDF882371F3C82FD4CF2091C4
:1008800048023091490226173707A0F0611571051B
:1008900029F42091E8002E772093E80030E06115DC
:1008A000710551F4311108C08091E80082FF30C019
:1008B00080E00895B901F2CF2091E80023FD30C017
:1008C0002091E80022FDF0CF2EB3222359F12EB360
:1008D000253021F12091E80020FFE1CF2091F200A6
:1008E000FC01CF016115710511F0283050F031E0A5
:1008F000283009F030E02091E8002E772093E800BE
:10090000CECF81918093F100615071092F5FE9CFC3
:100910008EB3882339F08EB3853031F683E00895A5
:1009200081E0089582E008952091480230914902C3
:1009300026173707A0F06115710529F42091E8000A
:100940002E772093E80030E06115710551F43111E4
:1009500008C08091E80082FF31C080E00895B901AD
:10096000F2CF2091E80023FD31C02091E80022FD64
:10097000F0CF2EB3222361F12EB3253029F120913F
:10098000E80020FFE1CF2091F200FC01CF016115CA
:10099000710511F0283050F031E0283009F030E0D6
:1009A0002091E8002E772093E800CECF84918093A9
:1009B000F100615071092F5F3196E8CF8EB3882323
:1009C00039F08EB3853029F683E0089581E00895EB
:1009D00082E008956115710529F42091E8002B77D4
:1009E0002093E8006115710531F48091E80080FFE3
:1009F00020C080E008952091E80023FD22C02EB39E
:100A0000222309F12EB32530D1F02091E80022FFF6
:100A1000E9CF2091F200222301F39C012F5F3F4F89
:100A20004091F100FC01408361507109C90189F7CF
:100A3000D4CF8EB3882339F08EB38530B1F683E0FE
:100A4000089581E0089582E008953ED040D01EBA16
:100A50001092400284E089BD89B5826089BD09B4E5
:100A600000FEFDCF8091D800982F9F779093D800FB
:100A700080688093D800809163008E7F80936300AC
:100A80008091D8008F7D8093D8008091E0008E7F88
:100A90008093E0008091E1008E7F8093E10080915F
:100AA000E20081608093E2008091E100877F809383
:100AB000E1008091E20088608093E2000895C5DF44
:100AC00081E08093410208951092E200089510920F
:100AD000E10008951F920F920FB60F9211242F93E9
:100AE0003F934F935F936F937F938F939F93AF93B6
:100AF000BF93EF93FF938091E10080FF1BC0809133
:100B0000E20080FF17C08091E1008E7F8093E100BA
:100B10008091E2008E7F8093E2008091E20080610C
:100B20008093E2008091D80080628093D80019BC45
:100B30001EBA48DC8091E10084FF27C08091E2006A
:100B400084FF23C084E089BD89B5826089BD09B472
:100B500000FEFDCF8091D8008F7D8093D8008091DA
:100B6000E1008F7E8093E1008091E2008F7E809390
:100B7000E2008091E20081608093E2008091400277
:100B8000811148C081E08EBB1CDC8091E10083FFB5
:100B900022C08091E20083FF1EC08091E100877F28
:100BA0008093E10082E08EBB109240028091E100D0
:100BB0008E7F8093E1008091E2008E7F8093E2003F
:100BC0008091E20080618093E200C2DD42E060E05B
:100BD00080E0ABDD13D18091E10082FF0AC08091FB
:100BE000E20082FF06C08091E1008B7F8093E100EC
:100BF000FCDBFF91EF91BF91AF919F918F917F911E
:100C00006F915F914F913F912F910F900FBE0F9079
:100C10001F90189584E0B7CF1F93CF93DF9300D038
:100C2000CDB7DEB7E2E4F2E08091F100819382E09B
:100C3000EA34F807C9F780914202909143029A3052
:100C400008F0DAC0E92FF0E0E95DF94FC4C23106DF
:100C50005006FC065006FC068906B806FC06D706B8
:100C6000E306803809F470C0823809F0C5C080916D
:100C7000460287708093E9008091EB0085FB88270E
:100C800080F91092E9009091E800977F9093E80036
:100C90008093F1001092F1008091E8008E7722C0DD
:100CA000282F2D7F09F0A8C0823009F04DC0809117
:100CB0004402811112C080914602877009F444C039
:100CC0008093E9002091EB0020FF3EC0933071F447
:100CD0008091EB0080628093EB001092E90080919C
:100CE000E800877F8093E80047DD2EC09091EB00FD
:100CF00090619093EB0021E030E001C0220F8A95D3
:100D0000EAF72093EA001092EA008091EB008860F5
:100D1000E2CF811171C0109144028091E800877F79
:100D20008093E80029DD8091E80080FF0AC0812FD0
:100D30008F7792E009F093E09EBB80688093E30098
:100D400003C08EB38111EFCF8091E80083FF0AC00A
:100D50008091EB0080628093EB008091E800877FB8
:100D60008093E8000F900F90DF91CF911F9108952D
:100D70008058823008F040C0AE014F5F5F4F6091F5
:100D80004602809144029091450276DCBC01892B99
:100D9000D9F29091E800977F9093E80089819A8139
:100DA000C3DD8091E8008B778093E800CDCF803859
:100DB00019F58091E800877F8093E80080914002D8
:100DC0008093F10069CF811117C090914402923055
:100DD00008F0BACF8091E800877F8093E800909375
:100DE0004002CADC80914002811104C083E08EBBC6
:100DF000EADAAACF84E0FBCFF2DAA6CF0895CF9348
:100E00008EB3882359F0C091E900C7701092E900B1
:100E10008091E80083FD00DFC093E900CF91089541
:100E20008F929F92AF92BF92CF92DF92EF92FF92FA
:100E30000F931F93CF93DF9300D01F92CDB7DEB7F0
:100E40007C01CDB6DEB68091E80083FF15C0F701C6
:100E5000208180914602909147022817190661F47B
:100E600080914302833009F4A2C0D8F4813009F4A0
:100E700052C0823009F4DAC00FB6F894DEBE0FBE5D
:100E8000CDBE0F900F900F90DF91CF911F910F91DA
:100E9000FF90EF90DF90CF90BF90AF909F908F909A
:100EA00008958A3009F4AAC08B3009F493C08930C0
:100EB00019F7809142028132F9F68091E800877F2C
:100EC0008093E8000091480210914902A0904402EA
:100ED000B09045028DB79EB7801B910B0FB6F8946A
:100EE0009EBF0FBE8DBFEDB7FEB731964F01B80163
:100EF000CF0170DD4FEF4B0D94016A2DC701E4DA8D
:100F00008091E8008E778093E8000FB6F894DEBEFB
:100F10000FBECDBEB1CF80914202813A09F0ACCF75
:100F20008DB69EB68091E800877F8093E8001A8294
:100F3000198280914402109145028B838781482F4A
:100F400050E08DB79EB7841B950B0FB6F8949EBFEB
:100F50000FBE8DBFEDB7FEB731965F0170E060E068
:100F6000CF0155D14FEF410F8E010F5F1F4F9501FC
:100F7000BE016D5F7F4FC7014FDAF7018581968112
:100F8000009721F0478150E0B50138D11092E90077
:100F900069817A81C50173DC8091E8008B77809349
:100FA000E8000FB6F8949EBE0FBE8DBE65CF80914F
:100FB0004202813A09F060CF8091E800877F8093F8
:100FC000E80080858093F1008091E8008E7780931F
:100FD000E80012C080914202813209F04DCF809129
:100FE000E800877F8093E8009091440281E09111AE
:100FF00001C080E0F7018087BFDB3ECF80914202D5
:10100000813209F039CF8091E800877F8093E80032
:10101000809144029091450236E0969587953A95E5
:10102000E1F78C7F937092878187E6CF80914202AF
:10103000813A09F021CF8091E800877F8093E80012
:10104000818592859695879596958795BBCFCF9309
:10105000DF93FC01DC011A9683E0ED0119928A9579
:10106000E9F781E0808784EF91E092878187828130
:1010700093812481C0E02111C4E0D18148DB8C2B15
:10108000482F426061EC8D2FDF91CF914ECB5F9264
:101090006F927F928F929F92AF92BF92CF92DF9288
:1010A000EF92FF920F931F93CF93DF9300D01F9285
:1010B000CDB7DEB77C01ADB6BEB68EB3843009F0D5
:1010C00072C0F70181818093E9008091E80085FF7B
:1010D0006AC08DB69EB6478150E08DB79EB7841B1F
:1010E000950B0FB6F8949EBF0FBE8DBFEDB7FEB740
:1010F00031966F011B821A82198270E060E0CF0185
:1011000086D08E010F5F1F4F960140E0BE016D5FDC
:101110007F4FC70181D9582EF70181859285892B90
:1011200029F011E083859485892B09F010E0F701FF
:101130006580768000E06114710479F049815A81FC
:10114000B301C6014ED001E0892B09F400E0F7019C
:10115000478150E0B601C30151D089819A81892B22
:10116000E9F0511004C0011102C010FF17C0F701CF
:10117000818592859487838781818093E9008B8123
:1011800081118093F10069817A8150E040E0C601CD
:101190003CDB8091E8008E778093E8000FB6F894EE
:1011A0009EBE0FBE8DBE0FB6F894BEBE0FBEADBEC6
:1011B0000F900F900F90DF91CF911F910F91FF90A3
:1011C000EF90DF90CF90BF90AF909F908F907F90E7
:1011D0006F905F900895EE0FFF1F0590F491E02D42
:1011E0000994FB01DC0104C08D910190801921F468
:1011F00041505040C8F7881B990B0895FB01DC0152
:1012000002C001900D9241505040D8F70895DC0182
:1012100001C06D9341505040E0F70895F894FFCF1E
:101220000102080000B901020000000000000108EE
:101230000000B101080000000000B5B6B7000000D2
:10124000000000000000000000000000000000009E
:101250000000CD00000000000000000000000000C1
:1012600000000000000000E2000000000000E9EAC9
:00000001FF
